{
  "contractName": "ProfileCore",
  "abi": [
    {
      "constant": true,
      "inputs": [
        {
          "name": "",
          "type": "address"
        }
      ],
      "name": "userList",
      "outputs": [
        {
          "name": "accountAddress",
          "type": "address"
        },
        {
          "name": "name",
          "type": "string"
        },
        {
          "name": "description",
          "type": "string"
        },
        {
          "name": "profileUrl",
          "type": "string"
        },
        {
          "name": "createBlock",
          "type": "uint256"
        },
        {
          "name": "updateBlock",
          "type": "uint256"
        }
      ],
      "payable": false,
      "stateMutability": "view",
      "type": "function"
    },
    {
      "constant": true,
      "inputs": [],
      "name": "getUserInfo",
      "outputs": [
        {
          "name": "accountAddress",
          "type": "address"
        },
        {
          "name": "name",
          "type": "string"
        },
        {
          "name": "description",
          "type": "string"
        },
        {
          "name": "profileUrl",
          "type": "string"
        },
        {
          "name": "createBlock",
          "type": "uint256"
        },
        {
          "name": "updateBlock",
          "type": "uint256"
        }
      ],
      "payable": false,
      "stateMutability": "view",
      "type": "function"
    },
    {
      "constant": true,
      "inputs": [],
      "name": "owner",
      "outputs": [
        {
          "name": "",
          "type": "address"
        }
      ],
      "payable": false,
      "stateMutability": "view",
      "type": "function"
    },
    {
      "constant": false,
      "inputs": [
        {
          "name": "_name",
          "type": "string"
        },
        {
          "name": "_description",
          "type": "string"
        },
        {
          "name": "_profileUrl",
          "type": "string"
        }
      ],
      "name": "setUserInfo",
      "outputs": [],
      "payable": false,
      "stateMutability": "nonpayable",
      "type": "function"
    },
    {
      "constant": false,
      "inputs": [
        {
          "name": "_new",
          "type": "address"
        }
      ],
      "name": "transferOwnership",
      "outputs": [],
      "payable": false,
      "stateMutability": "nonpayable",
      "type": "function"
    },
    {
      "anonymous": false,
      "inputs": [
        {
          "indexed": false,
          "name": "addr",
          "type": "address"
        },
        {
          "indexed": false,
          "name": "name",
          "type": "string"
        }
      ],
      "name": "SetUserInfo",
      "type": "event"
    },
    {
      "anonymous": false,
      "inputs": [
        {
          "indexed": false,
          "name": "oldaddr",
          "type": "address"
        },
        {
          "indexed": false,
          "name": "newaddr",
          "type": "address"
        }
      ],
      "name": "TransferOwnership",
      "type": "event"
    }
  ],
  "bytecode": "0x6060604052336000806101000a81548173ffffffffffffffffffffffffffffffffffffffff021916908373ffffffffffffffffffffffffffffffffffffffff160217905550610f70806100536000396000f30060606040526004361061006d576000357c0100000000000000000000000000000000000000000000000000000000900463ffffffff1680631b4e7bd2146100725780635d8d1585146102945780638da5cb5b1461043b5780638ffe411f14610490578063f2fde38b14610573575b600080fd5b341561007d57600080fd5b6100a9600480803573ffffffffffffffffffffffffffffffffffffffff169060200190919050506105ac565b604051808773ffffffffffffffffffffffffffffffffffffffff1673ffffffffffffffffffffffffffffffffffffffff1681526020018060200180602001806020018681526020018581526020018481038452898181546001816001161561010002031660029004815260200191508054600181600116156101000203166002900480156101785780601f1061014d57610100808354040283529160200191610178565b820191906000526020600020905b81548152906001019060200180831161015b57829003601f168201915b50508481038352888181546001816001161561010002031660029004815260200191508054600181600116156101000203166002900480156101fb5780601f106101d0576101008083540402835291602001916101fb565b820191906000526020600020905b8154815290600101906020018083116101de57829003601f168201915b505084810382528781815460018160011615610100020316600290048152602001915080546001816001161561010002031660029004801561027e5780601f106102535761010080835404028352916020019161027e565b820191906000526020600020905b81548152906001019060200180831161026157829003601f168201915b5050995050505050505050505060405180910390f35b341561029f57600080fd5b6102a7610605565b604051808773ffffffffffffffffffffffffffffffffffffffff1673ffffffffffffffffffffffffffffffffffffffff168152602001806020018060200180602001868152602001858152602001848103845289818151815260200191508051906020019080838360005b8381101561032d578082015181840152602081019050610312565b50505050905090810190601f16801561035a5780820380516001836020036101000a031916815260200191505b50848103835288818151815260200191508051906020019080838360005b83811015610393578082015181840152602081019050610378565b50505050905090810190601f1680156103c05780820380516001836020036101000a031916815260200191505b50848103825287818151815260200191508051906020019080838360005b838110156103f95780820151818401526020810190506103de565b50505050905090810190601f1680156104265780820380516001836020036101000a031916815260200191505b50995050505050505050505060405180910390f35b341561044657600080fd5b61044e6108fa565b604051808273ffffffffffffffffffffffffffffffffffffffff1673ffffffffffffffffffffffffffffffffffffffff16815260200191505060405180910390f35b341561049b57600080fd5b610571600480803590602001908201803590602001908080601f0160208091040260200160405190810160405280939291908181526020018383808284378201915050505050509190803590602001908201803590602001908080601f0160208091040260200160405190810160405280939291908181526020018383808284378201915050505050509190803590602001908201803590602001908080601f0160208091040260200160405190810160405280939291908181526020018383808284378201915050505050509190505061091f565b005b341561057e57600080fd5b6105aa600480803573ffffffffffffffffffffffffffffffffffffffff16906020019091905050610c9b565b005b60016020528060005260406000206000915090508060000160009054906101000a900473ffffffffffffffffffffffffffffffffffffffff16908060010190806002019080600301908060040154908060050154905086565b600061060f610e18565b610617610e18565b61061f610e18565b60008061062a610e2c565b600160003373ffffffffffffffffffffffffffffffffffffffff1673ffffffffffffffffffffffffffffffffffffffff16815260200190815260200160002060c060405190810160405290816000820160009054906101000a900473ffffffffffffffffffffffffffffffffffffffff1673ffffffffffffffffffffffffffffffffffffffff1673ffffffffffffffffffffffffffffffffffffffff168152602001600182018054600181600116156101000203166002900480601f0160208091040260200160405190810160405280929190818152602001828054600181600116156101000203166002900480156107645780601f1061073957610100808354040283529160200191610764565b820191906000526020600020905b81548152906001019060200180831161074757829003601f168201915b50505050508152602001600282018054600181600116156101000203166002900480601f0160208091040260200160405190810160405280929190818152602001828054600181600116156101000203166002900480156108065780601f106107db57610100808354040283529160200191610806565b820191906000526020600020905b8154815290600101906020018083116107e957829003601f168201915b50505050508152602001600382018054600181600116156101000203166002900480601f0160208091040260200160405190810160405280929190818152602001828054600181600116156101000203166002900480156108a85780601f1061087d576101008083540402835291602001916108a8565b820191906000526020600020905b81548152906001019060200180831161088b57829003601f168201915b5050505050815260200160048201548152602001600582015481525050905080600001519650806020015195508060400151945080606001519350806080015192508060a00151915050909192939495565b6000809054906101000a900473ffffffffffffffffffffffffffffffffffffffff1681565b33600160003373ffffffffffffffffffffffffffffffffffffffff1673ffffffffffffffffffffffffffffffffffffffff16815260200190815260200160002060000160006101000a81548173ffffffffffffffffffffffffffffffffffffffff021916908373ffffffffffffffffffffffffffffffffffffffff16021790555082600160003373ffffffffffffffffffffffffffffffffffffffff1673ffffffffffffffffffffffffffffffffffffffff16815260200190815260200160002060010190805190602001906109f6929190610e8b565b5081600160003373ffffffffffffffffffffffffffffffffffffffff1673ffffffffffffffffffffffffffffffffffffffff1681526020019081526020016000206002019080519060200190610a4d929190610e8b565b5080600160003373ffffffffffffffffffffffffffffffffffffffff1673ffffffffffffffffffffffffffffffffffffffff1681526020019081526020016000206003019080519060200190610aa4929190610e8b565b506000600160003373ffffffffffffffffffffffffffffffffffffffff1673ffffffffffffffffffffffffffffffffffffffff1681526020019081526020016000206004015411610af55743610b39565b600160003373ffffffffffffffffffffffffffffffffffffffff1673ffffffffffffffffffffffffffffffffffffffff168152602001908152602001600020600401545b600160003373ffffffffffffffffffffffffffffffffffffffff1673ffffffffffffffffffffffffffffffffffffffff1681526020019081526020016000206004018190555043600160003373ffffffffffffffffffffffffffffffffffffffff1673ffffffffffffffffffffffffffffffffffffffff168152602001908152602001600020600501819055507f43501506e587f860fd62cf713087d8e8772c7fae89f6de79974a7ce77787a7d43384604051808373ffffffffffffffffffffffffffffffffffffffff1673ffffffffffffffffffffffffffffffffffffffff16815260200180602001828103825283818151815260200191508051906020019080838360005b83811015610c5b578082015181840152602081019050610c40565b50505050905090810190601f168015610c885780820380516001836020036101000a031916815260200191505b50935050505060405180910390a1505050565b60008060009054906101000a900473ffffffffffffffffffffffffffffffffffffffff1673ffffffffffffffffffffffffffffffffffffffff163373ffffffffffffffffffffffffffffffffffffffff16141515610cf857600080fd5b6000809054906101000a900473ffffffffffffffffffffffffffffffffffffffff169050816000806101000a81548173ffffffffffffffffffffffffffffffffffffffff021916908373ffffffffffffffffffffffffffffffffffffffff1602179055507f5c486528ec3e3f0ea91181cff8116f02bfa350e03b8b6f12e00765adbb5af85c816000809054906101000a900473ffffffffffffffffffffffffffffffffffffffff16604051808373ffffffffffffffffffffffffffffffffffffffff1673ffffffffffffffffffffffffffffffffffffffff1681526020018273ffffffffffffffffffffffffffffffffffffffff1673ffffffffffffffffffffffffffffffffffffffff1681526020019250505060405180910390a15050565b602060405190810160405280600081525090565b60c060405190810160405280600073ffffffffffffffffffffffffffffffffffffffff168152602001610e5d610f0b565b8152602001610e6a610f0b565b8152602001610e77610f0b565b815260200160008152602001600081525090565b828054600181600116156101000203166002900490600052602060002090601f016020900481019282601f10610ecc57805160ff1916838001178555610efa565b82800160010185558215610efa579182015b82811115610ef9578251825591602001919060010190610ede565b5b509050610f079190610f1f565b5090565b602060405190810160405280600081525090565b610f4191905b80821115610f3d576000816000905550600101610f25565b5090565b905600a165627a7a72305820e431a91fa54578096ad12ee6c86d70530d68781c3ddfc7a1dee8e4f31ef0e88b0029",
  "source": "pragma solidity ^0.4.16;\n\nimport \"./ProfileBase.sol\";\n\n/**\n　* Owned\n　* \n　*/\ncontract Owned {\n  address public owner;\n\n  // event\n  event TransferOwnership(address oldaddr, address newaddr);\n\n  // modifier\n  modifier onlyOwner() {\n    require(msg.sender == owner);\n    _;\n    }\n\n  /**\n   * Constructor\n   */\n  function Owned() public {\n    owner = msg.sender;\n  }\n\n  /**\n   * Transfer Ownership\n   */\n  function transferOwnership(address _new) onlyOwner public {\n    address oldaddr = owner;\n    owner = _new;\n    TransferOwnership(oldaddr, owner);\n  }\n}\n\n\n/**\n　* ProfileCore\n　* \n　*/ \ncontract ProfileCore is Owned, ProfileBase {\n\t// event\n  event SetUserInfo(address addr, string name);\n\n  /**\n   * Set user info\n   */\n  function setUserInfo(string _name, string _description, string _profileUrl) public {\n    userList[msg.sender].accountAddress = msg.sender;\n    userList[msg.sender].name = _name;\n    userList[msg.sender].description = _description;\n    userList[msg.sender].profileUrl = _profileUrl;\n    userList[msg.sender].createBlock = userList[msg.sender].createBlock > 0 ? userList[msg.sender].createBlock : block.number;\n    userList[msg.sender].updateBlock = block.number;\n\n    SetUserInfo(msg.sender, _name);\n  }\n\n  /**\n   * Get user info\n   */\n  function getUserInfo() public constant returns (\n    address accountAddress,\n    string name,\n    string description,\n    string profileUrl,\n    uint createBlock,\n    uint updateBlock\n  ) {\n    UserInfo memory userInfo = userList[msg.sender];\n    \n    accountAddress = userInfo.accountAddress;\n    name = userInfo.name;\n    description = userInfo.description;\n    profileUrl = userInfo.profileUrl;\n    createBlock = userInfo.createBlock;\n    updateBlock = userInfo.updateBlock;\n  }\n\n}\n",
  "sourcePath": "/Users/biga816/dev/study/ethereum/truffle-angular/contracts/ProfileCore.sol",
  "compiler": {
    "name": "solc",
    "version": "0.4.18+commit.9cf6e910.Emscripten.clang"
  },
  "schemaVersion": "1.0.1",
  "updatedAt": "2018-01-09T13:44:14.736Z"
}